:020000040000fa
:080000000002040000000000f2
:020000040000fa
:040008006e03000083
:020000040000fa
:04000c006e0300007f
:020000040000fa
:040010006e0300007b
:020000040000fa
:040014006e03000077
:020000040000fa
:040018006e03000073
:020000040000fa
:04001c006e0300006f
:020000040000fa
:040020006e0300006b
:020000040000fa
:040024006e03000067
:020000040000fa
:040028006e03000063
:020000040000fa
:04002c006e0300005f
:020000040000fa
:040030006e0300005b
:020000040000fa
:040034004403000081
:020000040000fa
:040038006e03000053
:020000040000fa
:04003c006e0300004f
:020000040000fa
:040040006e0300004b
:020000040000fa
:040044006e03000047
:020000040000fa
:04004800fa020000b8
:020000040000fa
:04004c006e0300003f
:020000040000fa
:040050006e0300003b
:020000040000fa
:040054006e03000037
:020000040000fa
:040058006e03000033
:020000040000fa
:04005c006e0300002f
:020000040000fa
:040060006e0300002b
:020000040000fa
:040064006e03000027
:020000040000fa
:040068006e03000023
:020000040000fa
:04006c006e0300001f
:020000040000fa
:040070006e0300001b
:020000040000fa
:040074006e03000017
:020000040000fa
:040078006e03000013
:020000040000fa
:04007c006e0300000f
:020000040000fa
:040080006e0300000b
:020000040000fa
:040084006e03000007
:020000040000fa
:040088006e03000003
:020000040000fa
:04008c006e030000ff
:020000040000fa
:040090006e030000fb
:020000040000fa
:040094006e030000f7
:020000040000fa
:040098006e030000f3
:020000040000fa
:04009c006e030000ef
:020000040000fa
:0400a0006e030000eb
:020000040000fa
:0400a4006e030000e7
:020000040000fa
:0400a8006e030000e3
:020000040000fa
:0400ac006e030000df
:020000040000fa
:0400b0006e030000db
:020000040000fa
:0400b4006e030000d7
:020000040000fa
:0400b8006e030000d3
:020000040000fa
:0400bc006e030000cf
:020000040000fa
:0400c0006e030000cb
:020000040000fa
:0400c4006e030000c7
:020000040000fa
:0400c8006e030000c3
:020000040000fa
:0400cc006e030000bf
:020000040000fa
:0400d0006e030000bb
:020000040000fa
:0400d4006e030000b7
:020000040000fa
:0400d8006e030000b3
:020000040000fa
:0400dc006e030000af
:020000040000fa
:0400e0006e030000ab
:020000040000fa
:0400e4006e030000a7
:020000040000fa
:0400e8006e030000a3
:020000040000fa
:0400ec006e0300009f
:020000040000fa
:0400f0006e0300009b
:020000040000fa
:0400f4006e03000097
:020000040000fa
:0400f8006e03000093
:020000040000fa
:0400fc006e0300008f
:020000040000fa
:040100006e0300008a
:020000040000fa
:040104006e03000086
:020000040000fa
:040108006e03000082
:020000040000fa
:04010c006e0300007e
:020000040000fa
:040110006e0300007a
:020000040000fa
:040114006e03000076
:020000040000fa
:040118006e03000072
:020000040000fa
:04011c006e0300006e
:020000040000fa
:040120006e0300006a
:020000040000fa
:040124006e03000066
:020000040000fa
:040128006e03000062
:020000040000fa
:04012c006e0300005e
:020000040000fa
:040130006e0300005a
:020000040000fa
:040134006e03000056
:020000040000fa
:040138006e03000052
:020000040000fa
:04013c006e0300004e
:020000040000fa
:040140006e0300004a
:020000040000fa
:040144006e03000046
:020000040000fa
:040148006e03000042
:020000040000fa
:04014c006e0300003e
:020000040000fa
:040150006e0300003a
:020000040000fa
:040154006e03000036
:020000040000fa
:040158006e03000032
:020000040000fa
:04015c006e0300002e
:020000040000fa
:040160006e0300002a
:020000040000fa
:040164006e03000026
:020000040000fa
:040168006e03000022
:020000040000fa
:04016c006e0300001e
:020000040000fa
:040170006e0300001a
:020000040000fa
:040174006e03000016
:020000040000fa
:040178006e03000012
:020000040000fa
:04017c006e0300000e
:020000040000fa
:040180006e0300000a
:020000040000fa
:040184006e03000006
:020000040000fa
:040188006e03000002
:020000040000fa
:04018c006e030000fe
:020000040000fa
:040190006e030000fa
:020000040000fa
:040194006e030000f6
:020000040000fa
:040198006e030000f2
:020000040000fa
:04019c006e030000ee
:020000040000fa
:0401a0006e030000ea
:020000040000fa
:0401a4006e030000e6
:020000040000fa
:0401a8006e030000e2
:020000040000fa
:0401ac006e030000de
:020000040000fa
:0401b0006e030000da
:020000040000fa
:0401b4006e030000d6
:020000040000fa
:0401b8006e030000d2
:020000040000fa
:0401bc006e030000ce
:020000040000fa
:0401c0006e030000ca
:020000040000fa
:0401c4006e030000c6
:020000040000fa
:0401c8006e030000c2
:020000040000fa
:0401cc006e030000be
:020000040000fa
:0401d0006e030000ba
:020000040000fa
:0401d4006e030000b6
:020000040000fa
:0401d8006e030000b2
:020000040000fa
:0401dc006e030000ae
:020000040000fa
:0401e0006e030000aa
:020000040000fa
:0401e4006e030000a6
:020000040000fa
:0401e8006e030000a2
:020000040000fa
:0401ec006e0300009e
:020000040000fa
:0401f0006e0300009a
:020000040000fa
:0401f4006e03000096
:020000040000fa
:0401f8006e03000092
:020000040000fa
:0401fc006e0300008e
:020000040000fa
:040200006e03000089
:020000040000fa
:040204006e03000085
:020000040000fa
:040208006e03000081
:020000040000fa
:04020c006e0300007d
:020000040000fa
:040210006e03000079
:020000040000fa
:040214006e03000075
:020000040000fa
:040218006e03000071
:020000040000fa
:04021c006e0300006d
:020000040000fa
:040220006e03000069
:020000040000fa
:040224006e03000065
:020000040000fa
:040228006e03000061
:020000040000fa
:04022c006e0300005d
:020000040000fa
:040230006e03000059
:020000040000fa
:040234006e03000055
:020000040000fa
:040238006e03000051
:020000040000fa
:04023c006e0300004d
:020000040000fa
:040240006e03000049
:020000040000fa
:040244006e03000045
:020000040000fa
:040248006e03000041
:020000040000fa
:04024c006e0300003d
:020000040000fa
:040250006e03000039
:020000040000fa
:040254006e03000035
:020000040000fa
:040258006e03000031
:020000040000fa
:04025c006e0300002d
:020000040000fa
:040260006e03000029
:020000040000fa
:040264006e03000025
:020000040000fa
:040268006e03000021
:020000040000fa
:04026c006e0300001d
:020000040000fa
:040270006e03000019
:020000040000fa
:040274006e03000015
:020000040000fa
:040278006e03000011
:020000040000fa
:04027c006e0300000d
:020000040000fa
:040280006e03000009
:020000040000fa
:100400008f0121000eff2c000e018800000000006b
:10041000000020000000e000020032000001200087
:100420002002880014000700ae0007000000e00072
:1004300003003a0080c520000100200002003700c0
:100440000000200001002000810f70000100320038
:100450000f000700000020000000e0000200320052
:100460000000020000000000340c02000000000048
:100470000040da000000fe00200020000000e00044
:1004800002003200100020009001880000000600e9
:10049000a1028800800478000000eb001f003700f4
:1004a000e284440054a0b4009905ba00e2844400f8
:1004b00054a0b4009906ba00e284440054a0b400e9
:1004c0000006eb00476fde00fd07b200ae018800ba
:1004d000636ce10003003a000ad801000000eb0061
:1004e0000e003700606ce10008003a00004deb00a0
:1004f0000a05e800020039003420ec000af0a000f0
:100500008b05e900f9ff3e00040037006168e10057
:10051000010032000086eb000b00070019c7ba008b
:100520000e04e0001905ba0003003a000a00e000da
:10053000dbff3a0000000600fe07b200ae028800b2
:100540008a047800f5ff37000cd0a300e20f4d00bd
:100550001c003b0089027800354dba000a05e8000e
:10056000020039003420ec000af0a0008b05e900fd
:100570000f003200254dba000a05e80002003900dc
:100580003420ec000af0a0008b05e90008003200de
:100590000c00e0000600320015cdba000a05e800a4
:1005a000020039003420ec000af0a0008b05e900bd
:1005b0008984e80054a0b4000b00e000e2ff3a0098
:1005c000000006009902ba00055d78008b05e9007d
:1005d000f7ff3200c82ade00055d78008b05e900d0
:1005e000f3ff32000c00e000f1ff320019ddba0029
:1005f000eeff37003600f800809fbe00829fbe00ed
:10060000849fbe00869fbe000000fa000108a9007a
:1006100002d0bf000004e0000b003a0012c0b3009b
:1006200000002000011a2400b50307000041eb0080
:1006300000002000011a2400b103070010c0b3001d
:1006400002f0b7000900370012c0b300000020001c
:10065000011a2c00aa0307000041eb000000200053
:10066000011a2c00a60307000270ef000080fa00b8
:100670004f03be004f02be004f01be004f00be0040
:100680003600f90000400600809fbe000000fa001e
:100690000068a90021738000000420000080600031
:1006a00000f0a7000000ea000000e9004f00de00b3
:1006b000004078000080fb00610060004600dd0023
:1006c000217380000160a100010070002073880088
:1006d0000080fa004f00be00004006000040da0033
:1006e0000000fe0000000500839f68000100e0009c
:1006f00002003d0060001000e08018000300e000f0
:1007000002003d0060011100e0811900390007007e
:100710004f00e00002003b0060001000e080180085
:100720000000060014002000a9023700f4ff2f008b
:10073000a70237000001be00190007000470a700df
:1007400003f0a10003f8a30013003a006509b1000b
:1007500010003200090035006928e1000200350070
:1007600001002800000005000000400081804800d2
:100770008502e900fcff3a0000000600f88f420005
:10078000050035008100d1000080d3008502e8001b
:10079000fcff3a00000006008000eb0000000500ae
:1007a000c70ade00f107b200f50fb2000800320000
:1007b000e1cf4200020032000170a00024000500d9
:1007c000810f70000100320004080500440005009c
:1007d000810f700002003a00140005008502e90054
:1007e0000000400081c04800fcff3b000170a000f9
:1007f000240005006022b800060220000000d0009e
:100800008180d2000482d2008582d2000000a00044
:100810000202520083825a000300310002024200a9
:1008200083824a000000a1000603e900f3ff3a00ba
:1008300000000600889fbe008a9fbe008c9fbe00fd
:100840001b0020000202be0005866800060028008a
:10085000060666004709de00f20fb2008200320091
:100860000243e80080003200c729de00f30fb20027
:100870007d0032000343e8007b003200f107b20044
:100880000170a000f507b2000570a000c708dd00e8
:100890004903de00868070004700dd00c72add00c6
:1008a0004923de00868272004722dd0003055100e5
:1008b000040350008583580003003100000040000d
:1008c000818048000a05e9008c1f78008a9fbe00dd
:1008d00004005000858058000402420085824a00ce
:1008e00000004000818048000005eb000004be00cd
:1008f0006033b8000406be000d48e1005600310028
:10090000110009004dccd8000c01b8000d02b80050
:100910008481410060824a008283530003045c00aa
:1009200084845c0060055d000a00e00025003a0058
:10093000800578000d40e100490031008800780012
:1009400007007800110009004d88d8000c01b8009c
:100950000d02b8008481410060824a0060031100ea
:1009600083835b0004045c00e0845c000900e00019
:1009700021003a004f01be000300e0002b003200ce
:10098000e3016000070673008c81710001003200f2
:10099000640070004200de004e5edd000c0070005e
:1009a000c258de0001e0a00083010700cf017800fb
:1009b000818071004f06be004f05be004f04be008f
:1009c000000006008c8343000d044c00e0844c00c2
:1009d00060054d000000e9000a00e000d4ff32008d
:1009e0008c8343000d044c00e0844c0060054d00f6
:1009f0000000e900ceff37000c0343008d834b005d
:100a000060044c00e0844c000000e9000900e000b4
:100a1000d8ff32000c0343008d834b0060044c0070
:100a2000e0844c000000e900d2ff37004200de0005
:100a30004e5edd000c007000c258de0001e0a00038
:100a4000cf0178000300e000daff32006000100000
:100a5000e0801800d7ff3700f0ff2f00aaff370013
:100a6000f0ff2f00b9ff37000404be002f0107007c
:100a7000870678000004fd008104fd002b010700bb
:100a8000078366000678a300030032000960a70010
:100a90000800be002c0037000d78a30002003200d1
:100aa0000800be00280037000778a30026003a009f
:100ab00001f0a10009f0a1000668a30003003200c4
:100ac000f1ff2700f0ff2f00baff37000d68a300e9
:100ad000030032000800be008c807000b5ff3700b4
:100ae0000768a30007003a000648a300030032008d
:100af000f1ff2700f0ff2f00aeff37000d48a300e5
:100b0000030032006000b8008c807000a9ff37003d
:100b10000748a3000400320001f82700000020006d
:100b20008c807000a3ff3700760107000004fd00f1
:100b30008104fd0002057800720107000802be0072
:100b40008a01780059ff37000160a00012022000de
:100b50002280880097ff37000100e0001200320079
:100b60000500e00010003200889fbe008a9fbe0092
:100b70008c9fbe000006eb0001f8a30003003200ca
:100b800060001000e08018000cf0a00005f8a30041
:100b90000300320060021200e0821a000cf0a20092
:100ba0008005eb0041ff37006000b800020005003f
:100bb000038368000700280007036300470ade007c
:100bc0000480a100c71ade000580a100f70f2000f5
:100bd0000720e100420032000728e1004000320017
:100be000889fbe008a9fbe008c1f7800f107b2006c
:100bf000f307b2000400e000640032000170a000be
:100c00000500e000680032000370a0008505420086
:100c1000eb07b1000204b8000302b800848444006a
:100c200060854a00020ab800848444000a854a00ac
:100c3000030ab80004054500040033000804d0008e
:100c40008984d2000a85d2008b05e9006158e10051
:100c50003d0035000210200009016100030820005a
:100c600089816100f707200087836400088673008c
:100c7000c84cde00c853dd00878474004855de0090
:100c80000300e00006003200820376000400320018
:100c90008904e80060054d000a88a3000c003a00b2
:100ca000f70f20000758e10044003d000a70a10042
:100cb000c75ddd000a8575008a00730009007800b1
:100cc0004f0678004f05be004f04be00000006002e
:100cd0000a05d1008984d3008b05e800f0ff3700b6
:100ce000881f78000604780090000700070278004b
:100cf0000001fd008101fd008c00070087027800e3
:100d0000850372000778a300050032000001fd0092
:100d10008101fd009f0007004f04780000000600dd
:100d2000850372000748a30003003200f0ff2f0084
:100d3000f1ff2700f8ff37000000200001f827002e
:100d400088807000f4ff3700880178004848dd0093
:100d5000808171004848de00c850dd00010070004d
:100d6000c850de00060478000b017800160007006a
:100d700088807000d2ff37000500e00005003200d7
:100d8000170020003a0007009dff37008103700024
:100d9000f9ff3a00860078004f0678004f05be0044
:100da0004f04be000000050083037100f9ff32000c
:100db000270020002e00070094ff370001f82700cd
:100dc00086807000f4ff37000100e000260032004a
:100dd000610111007810e10023003c006022b8009e
:100de0007010e100040035008002780001007800f6
:100df0008000eb00700151000200e00009003400a7
:100e000070031100062add00822ade008603dd0061
:100e1000878272000200de00860bdd000700700092
:100e20008208de0084817100f4ff270004826200e2
:100e300084817100040028008482620061026000e5
:100e400005f0a600000006000482710007003200d1
:100e50000000e800e0804800000006000002be003c
:100e60006000b800efff37006000b8000000060027
:100e7000889fbe000004eb006138e10016003a00d4
:100e80000100e00008003a00c800de004800dd0074
:100e9000880020000100e00003003a00c800de00e6
:100ea0004800dd00680444008184cf00e9845400d8
:100eb000060034008908dd00f08314008703de009b
:100ec000878070000900dd000904440061021400fd
:100ed0004f04be00000006000300e00008003a00d6
:100ee000c811de004811dd00880020000300e0008a
:100ef00003003a00c811de004811dd006804440018
:100f00008384cf00e9845400060034008919dd0091
:100f1000f08314008713de00878171000911dd0062
:100f200009044400e1021400e9ff37002700200013
:100f300001f0a70017002000470bde00f60fb200fb
:100f4000040032000643e8000a0032004702b30002
:100f50000000060001037800f607b20006037000e7
:100f600002003a000703b300000006008702b30046
:100f70000000060001037800f607b20006037000c7
:100f8000020032000770a000000006000760a00009
:100f9000000006000478a300040032000578a300d6
:100fa000030032000168a30001003a000200be0005
:100fb0000160a000000006008101700027003200df
:100fc0008002eb0001f8a300030032006000100073
:100fd000e080180015002000f40720000202420003
:100fe00020003400f703200087036000060420007f
:100ff0000003630002082000000161004700de00da
:10100000c909dd0000807100c708de000600e000ad
:101010000800320087037100060032001000b000a3
:101020000180b0000188a30002003200c108de0088
:101030000402e800f107b200f30f20000320e100f2
:1010400003003d004722dd008100720029003700c7
:1010500001f827000000eb00260037006000b80010
:1010600000000600680212007f20e1000200340048
:101070006000b8001f0037006011b8007020e10068
:101080000400350080017800010078008000eb004a
:10109000700252000400e00009003400f003120066
:1010a0000719dd008419de000703dd008681710069
:1010b0000400de00070bdd00060070008408de007f
:1010c000f7ff270083836300870371000600280071
:1010d00003036300070032000700e00003003a004a
:1010e0006101600002817300020032001000b00054
:1010f0000180b0000500a6000000060001f0a0007d
:10110000000006004f0ade004709de00f107b200ca
:10111000f20fb2000b003200f207b1000170a00024
:10112000c708dd00c901de00838070004700dd00d4
:101130000400a6000000060060001000e080180017
:1011400000000600810f700001003a000000060058
:101150008182cf000500e00010003e008082cf00b9
:10116000ee8242007028e1000400390007003e00d2
:10117000800078000000eb000e0037007083120042
:101180008600de000500dd000a0037007083520093
:101190008600dd000000eb0006003700e28252000e
:1011a0008508dd00708312000603de008680700073
:1011b0000500dd007507b0000501ea000400a60087
:1011c0000000060060001000e0801800000006002b
:1011d000889fbe008a9fbe00841f7800170007000a
:1011e0004f00780011003300f0ff2f00838f6c0058
:1011f00006003b00040565000a00a7000800370050
:1012000009f0a6001000200008003700820f5400eb
:10121000838f5c00030039001000200001003e00b5
:101220000000200009f0a7000000ea004f05be0002
:101230004f04be000000e000000006000004be00f5
:1012400057fd07000003be000405be000200be00fb
:0c12500053fd0700844f750000000600ed
:020000040000fa
:10125c000400fa00881f7800008fbe0018c0b3008d
:10126c006011b8001e0078009e0090002cfd070055
:10127c000000e00001003d000044eb000804e00029
:10128c00030032001e0078009e009000030037001f
:10129c001e0078009e00900001f0a2004f04780020
:1012ac000080fa00000006000800fa00881f780091
:1012bc00008fbe00640047000288be0018c0b30057
:1012cc006400470010017800900190001e00780027
:1012dc009e00900012fd07000000e00001003c00a1
:1012ec000044eb000804e000030032001e0078000c
:1012fc009e009000030037006400470090009000af
:10130c00100078004f0478000080fa0000000600fe
:10131c000800fa00881f7800008fbe0064004700a8
:10132c000288be0018c0b3006400470010017800aa
:10133c00900190001e0078009e009000f6fc0700c3
:10134c000000e000010035000044eb000804e00060
:10135c00030032001e0078009e009000030037004e
:10136c006400470090009000100078004f04780053
:10137c000080fa00000006000c00fa00881f7800bc
:10138c00008fbe00640047000288be006800470062
:10139c000488be0018c0b300680047001001780034
:1013ac00900190001e0078009e009000dcfc07006d
:1013bc000000e00001003c000044eb000804e000e9
:1013cc000400320068004700301f780020177800b6
:1013dc000f00370018c0b3006400470010017800fc
:1013ec00900190001e0078009e009000cafc07003f
:1013fc000000e000010035000044eb000804e000b0
:10140c000300320064004700301f7800201778007a
:10141c001e0078009e0090004f0478000080fa00b7
:10142c00000006000400fa00008fbe00b2fd200090
:10143c00930424001e0078009e009000fafc070024
:10144c000200200043332400d6fd07000080fa0080
:10145c00000006000400fa00008fbe00b2fd200060
:10146c00930424001e0078009e009000cdfd070020
:10147c000200200043332400ebfc07000080fa003c
:10148c00000006000000fa001160800080ff2f00b1
:10149c00008060001060880000fa20002060880046
:1014ac0023aca800238ca80011618000f03f2f0012
:1014bc000080600000a0a0001061880030002000b7
:1014cc0020618800c3aca800c38ca8001166800002
:1014dc00f03f2f000080600000a0a0001066880084
:1014ec00300020002066880001eca8000080fa0083
:1014fc00000006000600fa00881f7800008fbe006e
:10150c0064004700024878006400470010407800ef
:10151c000004e00028003a001e0178009e019000b3
:10152c0062808800738088006080800071808000f9
:10153c0018c0b3006011b80079fc07000000e0008f
:10154c0001003c000044eb000804e0000d003200f8
:10155c0023cca90015eea80023eca8006080800025
:10156c007180800002002000032224008dfd070002
:10157c0037ff07006cfc0700000078003061880022
:10158c003500370023eca90015cea80023cca80009
:10159c006080800071808000020020000322240003
:1015ac0080fd07002aff07005ffc070000007800a1
:1015bc0030618800280037001e0178009e019000e1
:1015cc00a2808800b3808800a0808000b180800059
:1015dc0018c0b3000200200003f8230050fc0700e1
:1015ec000000e00001003c000044eb000804e000b7
:1015fc000d003200c3cca90024eea800c3eca80057
:10160c00a0808000b1808000020020000322240012
:10161c0064fd07000eff070043fc07000000780084
:10162c00306688000c003700c3eca90024cea8005b
:10163c00c3cca800a0808000b180800002002000f4
:10164c000322240057fd070001ff070036fc0700aa
:10165c0000007800306688004f0478000080fa00a3
:10166c00000006000000fa0013e1a90011e1a90036
:10167c001061a8001021a90081088000f0fc2f0047
:10168c0000806000800888000a21ef000621ef002e
:10169c00404c20007008880000402b006008880037
:1016ac002142800080ff2f00008060000000a0001d
:1016bc00204288000108a9002108a80011e1a80017
:1016cc000080fa00000006000200fa0005e1a90003
:1016dc0021088000f0fc2f00008060000050a0006a
:1016ec00200888000421a90000902100000f780038
:1016fc001e007800cf80de000001be0000a0250097
:10170c0021262000f5fb0700000078001008880057
:10171c000068a9002068a80005e1a8000080fa0074
:10172c00000006000000fa00f0032000303a8800a8
:10173c00213a8000f0f32f0000806000203a8800ee
:10174c00213a800000fe2f00008060000000a00005
:10175c00203a88001200200080072000a1092000f8
:10176c0033742000804978008149780082497800e0
:10177c00103a8000000178000200a00060042000f4
:10178c00710520002374200080497800814978007d
:10179c008249780000000000113a80000000270008
:1017ac008080600000002100808f5000faff3a001a
:1017bc0000000000113a8000000220000080600050
:1017cc000000e000fbff32000080fa000000060081
:1017dc000000fa000e2eef001e2eef002e2eef0052
:1017ec003e2eef004e2eef005e2eef006e2eef0021
:1017fc00214ea90060cea90060eea90011cea9006f
:10180c0011eea90020cea90020eea900103a80000c
:10181c00000178000260a100600420007105200026
:10182c00237420008049780081497800824978002f
:10183c00103a8000000178000260a00060042000d3
:10184c0071052000237420008049780081497800bc
:10185c00824978000080fa00000006000000fa00bf
:10186c00b0ff0700daff07007eff070096ff0700b6
:10187c0004ff070012c0b30000002000011a2c0066
:10188c001cff07000041eb0000002000011a2c0097
:10189c0018ff070064cea80064eea800254ea8002f
:0418ac00ffff370003
:020000040000fa
:1018b0000010000002000000820000001400000080
:1018c000061000001200000080000000021000005e
:1018d0000200000080000000041000000200000070
:0818e000800000000000000080
:020000040000fa
:02000004000af0
:04afe000cfff00009f
:020000040000fa
:02000004000af0
:04afe400f7ff000073
:020000040000fa
:02000004000af0
:04afe8007fff0000e7
:020000040000fa
:02000004000af0
:04afec005fff000003
:020000040000fa
:02000004000af0
:04aff00038ff000026
:020000040000fa
:02000004000af0
:04aff400ffffff005c
:00000001FF
